:020000040000FA
:06000000020BFE02024AA1
:03002B000209DBEC
:030033000207378A
:030043000208A907
:0300530002017F28
:03006B0002071178
:100083000201DE010020FD00020000561000000006
:10009300000000F8100000B61000003E1000000041
:1000A300000000000000000000000000000000004D
:1000B300000000000006FFFF060008BA1800000059
:1000C3000160EA00005357353A2048656C702020E0
:1000D300202020202000FA14061500000C1512150C
:1000E30000000000000000000000010000000020EC
:1000F300202020202020202020202020202020011C
:1001030008040100010002BE8202C282010101044F
:10011300000619000000E8030000FFFFD219E803FE
:10012300000064006400B801A0BB0D00A0BB0D007B
:10013300020200F8FF0705021E0401051E02051E48
:10014300020A0A010108080103102702803E010286
:10015300FEFFE8030A050001FFFF010A1401E001A5
:100163000105030101FF0F10FEFFBB2B0000000080
:100173008F2A00000000FF000000FF00C0E074F1C0
:100183001204D9A2AFE433F509D2AF85A708AFA112
:10019300EF5508FE74105E6006120DC875A1EF746A
:1001A300085E6008120DCE75A1F78024EFA2E092DD
:1001B300F0E508A2E082F05017906198E0F890050E
:1001C30083E0C398A2D265D0335002E8F075A1FE54
:1001D300E509A2E092AF7F02020538C0E074F21293
:1001E30004D9A2AFE433FED2AF9061A4E0F8759BCB
:1001F30000E59158540860087591F7120E16802394
:10020300E59158541060087591EF120E1C8014E5A7
:1002130091A2E092F0E8A2E082F05007E0C2E0F0A1
:10022300120F729061A3E0F8E5E9585404600E12CE
:100233000F4875E9FB906193E0A2E640F2EEA2E07D
:1002430092AF7F01020538C0E074F21204D9A2AF65
:10025300E433FED2AF9061A5E0F8E5BF58540460E3
:100263000675BFFB120F8A80D4C3E498F8E499F9AA
:100273001202AD8026C3E49AFAE49BFBE920E7E986
:100283001202ADE498F8E499F922C3E498F8E499EA
:10029300F91202ADE498F8E499F9C3E49AFAE49BFD
:1002A300FB22EB20E7CFE920E7E0B90010BB000811
:1002B300E88AF084F8AAF022E4FBC8FA22EB702261
:1002C3007B10C833C8C933C9335007C39AC3DBF2A1
:1002D30080069A50012ADBEAC833F4C8C933F4C94B
:1002E300FA2275F008E4C833C8C933C933C99AC9B7
:1002F3009B5004C92AC93BD5F0ECFBC833F4C8E4CE
:10030300C9FA22080808EAC0E0EBC0E086F0E7A4D7
:10031300FA180986F0E7A42AFA180986F0E7A42A4E
:10032300FA180986F0E7A42AFA1986F0E7A4FBE590
:10033300F02AFA190886F0E7A42BFBE5F03AFA193C
:100343000886F0E7A42BFBE5F03AFA18180986F0C3
:10035300E7A4C5F02BFBE43AFA1908E7C5F0C6A4F5
:1003630026F6E5F03BFBE43AFA1886F0E7A4F6E557
:10037300F00826F6E43B08F6E43A08F6D0E0FBD0B2
:10038300E0FA22080808E630E711120AFF12039E7A
:10039300080808C64480C618181822181818E979DE
:1003A3009EC608CAC608CBC608CCC6C370207996B9
:1003B300CACBCC7019798ECBCC70137986CC700EE6
:1003C300F9802ACA33CACB33CBCC33CC331930E7C9
:1003D300F2CCCBCA3350147004EA30E00DE4CA3ACD
:1003E300CACB3BCBCC3CCC500209C3E913C6CC18D7
:1003F3002313C6CB18C6CA18C6F922E4CFC0E0E45B
:10040300CEC0E0E4CDC0E0E4CCC0E075F020E62649
:10041300F608E633F608E633F608E633F618181856
:10042300EC33FCED33FDEE33FEEF33FFC3EC970902
:10043300ED9709EE9709EF97191919400FFFEC97FC
:10044300FC09ED97FD09EE97FE191906D5F0BFECEF
:10045300F709EDF709EEF709EFF7191919D0E0FCE1
:10046300D0E0FDD0E0FED0E0FF222518C582C0E039
:10047300E51934FFC583C0E0E518C3958224F8105D
:10048300AF088583198582188008858319858218AA
:10049300D2AFCEF0A3E520F0A37808E608F0A3DE00
:1004A300FAEFF0A3E58124FAF8E608F0A3E608F0F2
:1004B300A3E608F0A30808E608F0A3E608F0A315EE
:1004C300811581D0E0FED0E0F8158115811581E812
:1004D300C0E0EEC0E022C0D02518C582C0E0E51917
:1004E30034FFC583C0E0E518C3958224F310AF0839
:1004F3008583198582188008858319858218D2AF70
:10050300C8F0A3E9F0A3EAF0A3EBF0A37908E709A5
:10051300F0A3D8FAECF0A3EDF0A3EEF0A3EFF0A371
:10052300D0E0F0A3D0E0F0A3D0E0F0A3E520F0A367
:10053300E5F0F0A322851983851882E0C0E0A3E0EB
:10054300F9A3E0FAA3E0FBA37808E0F608A3DFFA37
:10055300E0FCA3E0FDA3E0FEA3E0FFA3E0C0E0A373
:10056300E0C0E0A3E0F5D0A3E0F520A3E0A3F5F01D
:1005730010AF0885831985821880088583198582C1
:1005830018D2AFD082D083D0E0F8D0E032120CAED4
:10059300B900030205CFE4900301789D791A800224
:1005A300F0A3D8FCD9FA7A9D7B1C90008678FA795F
:1005B300018015E493A3AD82AE838A828B83F0A37B
:1005C300AA82AB838D828E83D8E9D9E77582D975E8
:1005D30083F0740512096C75829275832874001276
:1005E300096CE4731E75F0108E1A8F1B85821F85AC
:1005F300831E851882851983E0CEA3E0CF851F82F1
:10060300851E83EBC9EAC8EDCBECCAC3E833C8E95E
:1006130033C9EA33CAEB33CBC3EA9EF51DEB9FF52F
:100623001CB35004AB1CAA1DEC33CCED33CDD5F079
:10063300DAAE1AAF1B22D083D082ECC0E0EDC0E06B
:10064300E493A3FCE493A3FDED4C600D120755EC7A
:1006530024FFFCED34FFFD80EFE493A3FCE493A3BC
:10066300FDED4C600D120854EC24FFFCED34FFFD4E
:1006730080EFD0E0FDD0E0FCE493A3C0E0E493C0BE
:10068300E022D083D082E9C0E0E493A3C386F0C51F
:10069300F095F0F908E493A386F0C5F095F0700B9C
:1006A300E493A3C3994005E9048002A3E475F0022F
:1006B300A42582F582E5F03583F583D0E0F9E49350
:1006C300A3C0E0E493C0E022851983851882E0A3E8
:1006D300FEE0A3F5207808E0A3F608DFFAE0A3FF25
:1006E300E0A3C0E0E0A3C0E0E0A3C0E0E0A3C0E07B
:1006F300E0A3C0E010AF08858218858319800885C0
:100703008218858319D2AFD083D082020972C0E0E8
:1007130074F21204D9A2AFE433FED2AFE589A2E1A9
:1007230050031227CC758900C2C5EEA2E092AF7FB9
:1007330001020538C0E074F21204D9A2AFE433FE1B
:10074300D2AFE58BA2E050031227CC758B00C2E831
:1007530080D8C0E0C3E49396087401939618400FC1
:10076300E49366700808740193661870007019A307
:10077300A3C3E49396087401939618A3A3400DD0E2
:10078300E0D0E0D0E0020675A3A3A3A3A3A3D0E027
:1007930022D083D082C5F0E493A3C5F0C395F0F5CE
:1007A300F0E493A3C395F04005E5F0048001E475FC
:1007B300F002A42582F582E5F03583F583E493A363
:1007C300C0E0E493C0E0227404800474028000CC8F
:1007D300C0E0EDC0E0E518C39CCCAD1950011D107D
:1007E300AF068C188D1980068C188D19D2AF12089C
:1007F300EED0E0FDD0E0FC2274028000CCC0E0ED3E
:10080300C0E0E518C39CCCAD1950011D10AF068C98
:10081300188D1980068C188D19D2AF1208CCD0E030
:10082300FDD0E0FC22120C0E6025120C1D6020127C
:100833000CCC7003020CC3080808E7667010181983
:10084300E766700A1819E76670041819E76622F458
:1008530022C0E0C0F088F0E4936670080874019346
:1008630066187000A8F0A3A3700BD0F0D0E0D0E01E
:10087300D0E0020675A3A3D0F0D0E022D083D082CB
:10088300CCC0E0E493A3600612092E1470FAE4933B
:10089300A36006120A581470FAD0E0FCE493A3C0D4
:1008A300E0E493C0E022C0E074F21204D9A2AFE402
:1008B30033FED2AFC2C0E5D1A2E45003120D38EE2D
:1008C300A2E092AF7F01020538CAC0E0E493A3C55A
:1008D30082CCC582C583CDC583F0A3C582CCC58236
:1008E300C583CDC583DAE5D0E0CA22CAC0E0E0A360
:1008F300C582CCC582C583CDC583F0A3C582CCC5D3
:1009030082C583CDC583DAE6D0E0CA227009080820
:1009130008226016181818C6C333C608C633C6089B
:10092300C633C608C633C6D5E0EA22C0E0E493A3C3
:10093300D39C5010E493A3C39C400AD0E0D0E0D0F2
:10094300E002089CA3A3A3D0E022C008C3E096F56D
:100953000808A3E096420808A3E096420808A3E02B
:100963009645087001D3D00822C09FF59FE473D049
:100973009F22D083D082C09FE493C0E0740193C0D0
:10098300E0740293F59F227404800A740380067452
:100993000280027401C0E0F4041209C0D0E0120C1A
:1009A300592200C0D0251810AF08F518500C0519AE
:1009B3008008F51850020519D2AFD0D0222518F5BA
:1009C3008210AF08F518400C15198008F51840027D
:1009D3001519D2AF85198322C0E0C0D0E8C0E0A8C2
:1009E300A8D2AFC2C7E8A2E792AFD0E0F8D0D0D088
:1009F300E032BB0102E722C082C08389828A83BBC3
:100A03000003E08002E493D083D0822260160808BA
:100A130008C6C313C618C613C618C613C618C6130A
:100A2300C6D5E0EA222518F8E43519F9222518FA83
:100A3300E43519FB222518FCE43519FD22C3E0C671
:100A430096F608A3E0C696F608A3E0C696F608A3B2
:100A5300E0C696F622C0E0E493A36C7009D0E0D020
:100A6300E0D0E002089CA3A3D0E022251810AF0831
:100A7300F518400C15198008F51840021519D2AF66
:100A830022C3E09608A3E09608A3E09608A3E096A5
:100A9300A2D265D03322E066701008A3E066700A24
:100AA30008A3E066700408A3E06622E766701008F6
:100AB30009E766700A0809E76670040809E7662211
:100AC300C3E096F008A3E096F008A3E096F008A32D
:100AD300E096F022C3E49396087401939608740297
:100AE3009396087403939622C3E697F60809E6974C
:100AF300F60809E697F60809E697F622181818E4A7
:100B0300C396F608E496F608E496F608E496F62209
:100B1300E026F008A3E036F008A3E036F008A3E0EF
:100B230036F022E657F60809E657F60809E657F6BF
:100B33000809E657F622E056F608A3E056F608A39E
:100B4300E056F608A3E056F622E056F008A3E05676
:100B5300F008A3E056F008A3E056F022E647F608B3
:100B630009E647F60809E647F60809E647F622E6E6
:100B730027F60809E637F60809E637F60809E637DF
:100B8300F622700422600D18C6C333C608C633C6E6
:100B9300D5E0F41822E493F608740193F60874027E
:100BA30093F608740393F622E026F608A3E036F6DC
:100BB30008A3E036F608A3E036F622600D08C6A2C5
:100BC300E713C618C613C6D5E0F322C6F4C608C693
:100BD300F4C608C6F4C608C6F4C622C3E7960809D5
:100BE300E7960809E7960809E79622C3E09608A363
:100BF300E09608A3E09608A3E0962275D0007581DD
:100C03003F75180175190300020590E6084608C3ED
:100C1300134608336002E633F422E7094709C31396
:100C23004709336002E733F422600C08C6C313C6D6
:100C330018C613C6D5E0F422E6F008A3E6F008A32D
:100C4300E6F008A3E6F022E0F608A3E0F608A3E046
:100C5300F608A3E0F622CAC0E0E6F0A308DAFAD069
:100C6300E0FA22E0FCA3E0FDA3E0FEA3E0FF22EA1A
:100C7300F0A3EBF0A3ECF0A3EDF022E0FAA3E0FB8A
:100C8300A3E0FCA3E0FD22E8F0A3E9F0A3EAF0A3CC
:100C9300EBF022ECF0A3EDF0A3EEF0A3EFF022E0F3
:100CA300F8A3E0F9A3E0FAA3E0FB22E5C754F84474
:100CB30001F5C77901222518F582E43519F5832258
:100CC300E72719471947194722E6261846184618F1
:100CD3004622C2AF75D69F020000221209759EDA22
:100CE30005120975C3DA0512097513DB05120975B7
:100CF30019E70512097527E705120975A0E705121B
:100D0300097574E80512097546EA05120975248EFA
:100D130006120975F6B90512097563BA0512097544
:100D23001BBB0512097591BB05120975AABC0512F7
:100D3300097535BE051209759EBE05120975EDBE0E
:100D430005120975F6BE0512097505BF0512097569
:100D53001BBF051209752EBF0512097537BF051292
:100D630009754ABF0512097576BF05120975E7C1F2
:100D73000512097527C20512097567C2051209759F
:100D83007BC20512097594C20512097585C3051244
:100D930009752AC4051209753EC40512097591FE29
:100DA30001120975B5FE01120975CEFE011209750E
:100DB30000FF0112097530FF011209755DFF011271
:100DC3000975BFFF01120975CEFF01120975D8FF1E
:100DD30001120975E5FF0112097543EE0512097544
:100DE30063EE05120975A2EE05120975BDEE051233
:100DF3000975DCEE0512097542EF051209754BEF13
:100E030005120975A8EF05120975CCEF05120975CE
:100E13008DF0051209759AF005120975ABF00512EC
:100E230009757AFF0412097592FF04120975BEFF52
:100E33000412097554CE05120975A8CF0512097558
:100E4300B6CF05120975C9CF05120975DECF051294
:100E53000975F3CF0512097506D0051209757AD005
:100E630005120975DFD00512097581D105120975BF
:100E730045D20512097555D20512097564D20512BA
:100E83000975928B06120975B68B06120975DE8BEE
:100E930006120975068C061209756FFA0512097593
:100EA30096FA05120975B4FA0512097527FB05129E
:100EB3000975F27C001209750B7D00120975177D07
:100EC300001209752B7D00120975497D0012097501
:100ED300537D001209755D7D00120975707D001246
:100EE3000975FA7D001209756F7E00120975A37EDC
:100EF30000120975F17E001209753E7F0012097513
:100F0300597F00120975637F00120975897F0012EA
:100F13000975EE7F00120975DB8A06120975FD8AD1
:100F230006120975E6FF031209756EB005120975FD
:100F330098B005120975B5B005120975C8B0051248
:100F43000975DEB0051209753CB10512097574B156
:100F5300051209756CB505120975B1B60512097547
:100F6300E4B60512097547B705120975CAB8051223
:100F73000975F2B80512097507B90512097517B98C
:100F8300051209755BB905120975B6B9051209751C
:100F9300C6B905120975A48506120975BE85061220
:100FA3000975E68506120975FF85061209752386FC
:100FB30006120975418606120975588606120975C7
:100FC300868606120975A18606120975E08D06123A
:100FD3000975ABEA05120975BBEA05120975C2EB7F
:100FE30005120975F6EB0512097518EC051209755A
:100FF3003BEC0512097559EC0512097593EC0512C2
:101003000975F8EC051209753AED0512097579EDC4
:1010130005120975AAED05120975E1ED05120975A9
:101023006D84061209758B8406120975F084061205
:1010330009758F8506120975EB8906120975D48621
:10104300061209751A87061209755DFE05120975E0
:101053009CFF05120975EAF404120975BCF8041221
:101063000975ABFA04120975D9FB04120975B6FCAC
:101073000412097538FE0412097508FF0412097574
:101083005CFF0412097592FC05120975B3FC051285
:101093000975E5FD051209750FFE0512097568F35B
:1010A30005120975DDF305120975E8F305120975D3
:1010B30009F405120975E1F0011209756BF50112C6
:1010C3000975D4F6011209758BF80112097513F924
:1010D30001120975AAF90112097569FA0112097554
:1010E3005DFB0112097575FC01120975A3FD01125F
:1010F300097572E40412097575E4041209755AEB53
:101103000412097594EC04120975E5ED04120975CE
:101113009BEE0412097586EF0412097569F0041237
:10112300097565F10412097517F20412097547F27E
:101133000412097503F404120975F0F50512097513
:1011430010F60512097523F7051209750BF8051238
:1011530009759DFE03120975D3FE03120975EDFE91
:10116300031209752FFF031209753FFF0312097557
:10117300D9FF03120975E3FF03120975DBA60512F4
:101183000975E5A6051209751FA70512097588A734
:1011930005120975A5A705120975BEA705120975DC
:1011A30060A805120975DFAA05120975E8AA0512D8
:1011B30009752DAB0512097556AB0512097563AB9D
:1011C30005120975D4AB051209755FAC05120975D3
:1011D300ADAC05120975EBAC0512097550AD0512DE
:1011E300097573AD05120975EAAD0512097541AEAE
:1011F300051209757CAE05120975B1AE05120975A4
:10120300C3AE05120975D5AE05120975F4AE051204
:101213000975FDAE05120975B8AF0512097504B05D
:101223000512097542B00512097549C905120975F8
:1012330089CA05120975ACCA05120975BDCA05121A
:101243000975BCCC05120975DCCC0512097539F892
:10125300051209756FF805120975B7F805120975B6
:1012630010FA051209753C6900120975606A0012CB
:1012730009759A6A00120975446C001209756E6C3F
:1012830000120975E36E00120975236F00120975C8
:10129300B97000120975567100120975A871001210
:1012A30009754B7200120975837200120975C572B4
:1012B30000120975347400120975827500120975DC
:1012C300B37700120975E1770012097508780012E7
:1012D3000975117800120975617800120975F378A0
:1012E30000120975227C00120975A57C001209758C
:1012F300DAFF02120975F0FF021209758B8D0612CF
:10130300097559DF051209756FDF0512097513E0B9
:101313000512097552E0051209756FE0051209758A
:10132300A0E005120975EDE00512097520E105122B
:1013330009755BE10512097550E305120975EB8820
:10134300061209754A8906120975888906120975F4
:10135300C989061209750080041209750C800412EC
:1013630009756E8004120975788004120975078166
:1013730004120975438104120975F8810412097571
:10138300058204120975688204120975B582041274
:101393000975618304120975DA83041209758B8553
:1013A30004120975D2870412097518890412097584
:1013B3006C8A04120975FD8A041209753C8C0412A7
:1013C30009753D8D04120975898E041209755393AD
:1013D300041209753C9404120975CF94041209751B
:1013E300F49404120975199504120975B195041240
:1013F3000975C795041209752D9604120975499646
:1014030004120975759604120975869704120975F5
:10141300589804120975D39904120975F4990412A2
:101423000975779A041209751D9B04120975659B4A
:1014330004120975DB9B04120975379C04120975A4
:10144300C89C04120975219E04120975649F041235
:101453000975EF9F0412097552A0041209759CA225
:101463000412097534A40412097544A404120975FD
:1014730078A404120975EDA40412097527A50412B2
:10148300097595A5041209752AA6041209752AA8D7
:1014930004120975EEA804120975F0A9041209755E
:1014A300A5AB041209750080061209759C8006120B
:1014B3000975BD80061209752E830612097572839C
:1014C30006120975BD830612097500800512097598
:1014D300328005120975648005120975F4800512BE
:1014E3000975E08205120975918405120975428612
:1014F30005120975A78605120975E3860512097594
:101503001E87051209753787051209754D87051260
:101513000975508705120975978705120975E788BC
:10152300051209750C8905120975328A05120975A8
:10153300DE8A05120975FE8D0512097570D6031230
:101543000975CBD60312097555D703120975C6D889
:10155300031209759ED90312097587DA03120975F7
:101563009EDA03120975F0DA0312097554DB0312CC
:10157300097595DB03120975A8DB03120975FEDBF8
:101583000312097557DC031209756FDC0312097521
:101593001FDF03120975B4DF03120975DEDF0312BF
:1015A300097527E00312097517E20312097581E231
:1015B3000312097555E30312097598E303120975BC
:1015C300B2E303120975F9E30312097519E403126F
:1015D3000975C3E4031209759AE503120975A5E5B4
:1015E3000312097515E6031209756FE603120975EF
:1015F300C0E603120975CBE7031209756FEA0312FC
:101603000975A5EA0312097517EB031209753CEB7B
:1016130003120975B6EB031209757FEC0312097502
:10162300BCEC031209751EED03120975DFED0312FD
:101633000975E2ED03120975ECED03120975F6ED78
:101643000312097509EE0312097585EE0312097574
:10165300AEEE03120975C1EE03120975EDEE031226
:10166300097514EF0312097538EF0312097573EF47
:1016730003120975E5EF031209750DF003120975DD
:101683004EF00312097568F0031209758DF0031209
:101693000975BBF003120975DBF00312097518F124
:1016A300031209754FF10312097559F203120975F3
:1016B3008CF303120975A2F303120975B9F303122C
:1016C3000975CBF303120975338D061209754B8D1A
:1016D3000612097552C40512097590C405120975DD
:1016E3001CC50512097527C60512097543C80512DD
:1016F3000975C0C805120975DDF7021209752CF8C2
:1017030002120975CCF90212097587FB02120975D9
:10171300C9FB02120975E8FC02120975F2FD0212F7
:10172300097514FE021209755EFE02120975DFFEC9
:10173300021209752ED80212097551D802120975C1
:1017430051D9021209759AD902120975F2D90212F6
:1017530009754EDA021209759ADA0212097510DB5D
:10176300021209759CDB0212097511DC021209755C
:1017730054DC0212097557E002120975A6E202123F
:101783000975E0E20212097569E3021209759AE626
:10179300021209750FE7021209759FE80212097513
:1017A300A7E902120975BDEA0212097533EB0212A9
:1017B3000975FAEB0212097563EC0212097566ECFE
:1017C300021209753AED0212097576EE02120975D5
:1017D30036F00212097531F20212097542F3021250
:1017E3000975DEF30212097523F50212097529F64C
:1017F3000212097587F60212097524F70212097598
:10180300C6AD0412097566AE04120975D0AE041292
:101813000975E9AE0412097578AF04120975BCAFF6
:1018230004120975D4B00412097510B104120975B4
:101833008DB104120975D8B10412097537B20412B7
:101843000975E3B2041209758CB504120975BAB6A9
:10185300041209753EB7041209751BB90412097500
:10186300C0B90412097563BA04120975C2BA041225
:10187300097537BB0412097590BC041209755ABD6A
:101883000412097590BD04120975ADBD04120975E2
:1018930053BE041209759FBE041209752BBF0412AF
:1018A3000975AAC00412097567C204120975E8C351
:1018B3000412097546C50412097556C60412097542
:1018C300FCC60412097566C70412097585C804129B
:1018D3000975C4C9041209753CCA0412097584CA7E
:1018E30004120975C8CA0412097511CB04120975CB
:1018F3005BCB0412097590CB041209750ECC04124C
:10190300097568CC04120975C1CD0412097540CE5E
:101913000412097557CF0412097579CF041209759A
:1019230085D00412097596D004120975AED004123D
:101933000975CED104120975EBD104120975BED213
:1019430004120975E2D204120975F9D20412097559
:101953001DD3041209753FD30412097531D404123F
:10196300097589D404120975FFD50412097561D666
:101973000412097578D604120975A6D604120975DE
:10198300D8D70412097555D804120975C2D80412A0
:10199300097502D90412097564D90412097514DA98
:1019A30004120975E6DB04120975D1DC041209750A
:1019B300CBDD04120975D1DE04120975EDDF0412C3
:1019C3000975FBDF04120975D4E00412097574E18B
:1019D30004120975B8E104120975A7810612097585
:1019E300DEE20412097581E304120975D9E30412D6
:1019F30009755DE30512097505E505120975C2E56B
:101A03000512097517E60512097594E6051209759D
:101A130048DB0512097566DB05120975AADB051299
:101A23000975D0DB05120975F6DB051209750EDCA5
:101A33000512097526DC051209753EDC05120975C8
:101A4300A1DC05120975E3DC0512097589DA0512B3
:101A530009751ADE0512097523DE051209752CDED8
:101A63000512097535DE051209753FDE0512097584
:101A730060DE051209759DD2051209757DD6051222
:101A830009758BD60512097590D605120975F5F1FE
:101A930005120975938E061209755C8E0612097577
:101AA300BF8E06120975E88E0612097500800212B0
:101AB3000975578002120975C380021209754F8197
:101AC300021209750582021209754D820212097507
:101AD300668202120975898202120975AB820212AB
:101AE3000975E98202120975388302120975638345
:101AF30002120975C18302120975688402120975FD
:101B03001085021209758C85021209755986021215
:101B13000975A08602120975EC860212097574878D
:101B230002120975AD87021209750388021209753D
:101B33001F88021209754E88021209755A8A021209
:101B43000975888B02120975B48B02120975E88B2B
:101B530002120975098C02120975188C0212097593
:101B6300238C02120975D28C02120975428D02125E
:101B73000975CD8D02120975D58D02120975428E34
:101B8300021209757E8E02120975448F02120975BD
:101B93001790021209756C90021209750B910212CB
:101BA3000975659102120975AA9102120975439488
:101BB3000212097586950212097570980212097549
:101BC300549902120975389A02120975499A021238
:101BD3000975BB9A02120975529B02120975B79BCC
:101BE30002120975A79C02120975CC9C0212097591
:101BF300EA9C02120975069D02120975799D02126B
:101C03000975889D02120975109E021209750D9FB0
:101C1300021209751A9F02120975239F0212097590
:101C230005A10212097527A20212097537A2021231
:101C3300097565A302120975E4A302120975FFA4CD
:101C4300021209753BA50212097515A7021209753F
:101C5300D2AA02120975E6AA02120975F0AA0212A3
:101C63000975FAAA0212097504AB021209751DABB4
:101C73000212097527AB0212097594AB021209759A
:101C83009FAB02120975C7AB02120975D2AB0212E0
:101C9300097537AC0212097542AC0212097566ACBC
:101CA300021209758AAC02120975FCAC021209759D
:101CB30045AD0212097561AD02120975D2AD02126A
:101CC30009751EAE0212097567AE02120975A5AE3B
:101CD3000212097526AF02120975CDAF02120975FA
:101CE3009CB10212097501B2021209752FB30212D7
:101CF300097555B3021209759DB402120975D7B758
:101D030002120975D5B902120975A0BB0212097531
:101D130039BC021209753ABE02120975EFBE0212EE
:101D2300097528BF021209758EBF0212097598BF83
:101D330002120975C1C10212097500C302120975A5
:101D430057C30212097502C402120975B2C5021201
:101D53000975FFC6021209751FC70212097574C7F8
:101D63000212097575C8021209759DC80212097518
:101D7300FCC802120975F4C9021209756BCA021272
:101D830009757ECB02120975ECCB02120975EBCCF7
:101D93000212097545CF021209756ECF0212097539
:101DA300D4D00212097556D202120975ADD20212AD
:101DB30009755BD30212097500D40212097559D44F
:101DC3000212097517D502120975A9D502120975F0
:101DD30008D6021209754AD6021209757BD6021279
:101DE3000975D2D702120975008003120975328072
:101DF300031209756B800312097529820312097591
:101E0300FF82031209755E8303120975748403123A
:101E13000975C084031209754E8703120975288A50
:101E2300031209756F8B03120975078C0312097569
:101E3300138C031209755C8C031209759E8D0312B2
:101E43000975948E03120975BE8E03120975148FDA
:101E5300031209756D8F03120975E08F031209755B
:101E6300169203120975989303120975839403124A
:101E73000975CD9503120975059803120975029B1F
:101E830003120975119B03120975A59B03120975AA
:101E9300509C03120975939C03120975FB9C031252
:101EA3000975179D03120975469D03120975859DD2
:101EB30003120975809E031209752F9F031209757A
:101EC300ACA103120975DEA203120975B6A30312AE
:101ED300097538A4031209756DA8031209759CA826
:101EE30003120975F7A8031209752AA903120975C4
:101EF300A2A903120975D5A90312097536AA0312FB
:101F0300097586AA0312097553AB031209750CAC44
:101F130003120975D0AC031209754AAF0312097590
:101F2300ACB003120975FDB10312097521B3031295
:101F3300097524B30312097553B3031209754BB51D
:101F4300031209750AB60312097539B60312097526
:101F530057B7031209751FB803120975DDB90312C8
:101F630009750FBA0312097551BA0312097550BBEB
:101F730003120975C3BB03120975ECBD031209757E
:101F83004BBE031209759FBE03120975CEC003121F
:101F93000975B1C10312097539C20312097527C343
:101FA300031209753BC3031209754FC30312097565
:101FB3007CC303120975ACC30312097567C5031209
:101FC300097579C603120975CEC60312097517C7B9
:101FD300031209753EC70312097506C80312097572
:101FE300ACC80312097532CA0312097579CA031200
:101FF3000975EBCA0312097540CC03120975E9CCC4
:10200300031209751DCD0312097535CD0312097528
:10201300D8CD0312097554D003120975FCD10312EC
:1020230009751AD20312097538D20312097504D33C
:102033000312097552D6031209751D83011209751E
:102043005583011209754988011209759588011292
:102053000975DB8801120975118A01120975768ADF
:1020630001120975EB8B01120975F58E01120975C1
:102073001E9001120975319A01120975C19A011254
:102083000975AB9D01120975B89E011209751B9F55
:102093000112097563A001120975D1A20112097514
:1020A30063A401120975F0A4011209750FA60112A8
:1020B30009759CA601120975A6A601120975CEA67B
:1020C300011209756EA70112097559A80112097544
:1020D30026A90112097543A9011209756CA90112F8
:1020E300097599A901120975E0AB01120975AFAC25
:1020F30001120975EEAC0112097570AD0112097573
:1021030011AE0112097543AE011209758AAE0112AF
:102113000975BDAE0112097501AF0112097550AF02
:102123000112097555AF01120975B1AF0112097595
:10213300F5AF01120975CFB00112097534B101125F
:1021430009759AB10112097515B2011209757DB5A8
:102153000112097580B601120975FEB701120975DE
:1021630014BB01120975B6BB01120975FFBD01123B
:102173000975BABE01120975F9BE01120975D1C0FC
:1021830001120975EEC001120975F7C00112097534
:1021930000C1011209750BC1011209752AC101128F
:1021A3000975CEC2011209752BC30112097535C316
:1021B300011209753FC3011209759EC30112097506
:1021C300E8C301120975E9C40112097540C501127A
:1021D300097551C6011209759AC60112097554C7CA
:1021E300011209756BC80112097540C901120975FD
:1021F30087CA011209758BCB0112097584CC0112B0
:1022030009759CCC01120975D3CC01120975DDCC7B
:1022130001120975E7CC01120975F2CC0112097597
:1022230010CD0112097558CD01120975B6CD0112F1
:102233000975DDCD01120975EFCD01120975A4CE23
:1022430001120975DDCE01120975FFCF011209755F
:1022530052D00112097538D1011209755FD10112EB
:102263000975CFD1011209754BD201120975A7D394
:1022730001120975CED40112097590D501120975A1
:102283005ED6011209751CD70112097504D8011213
:102293000975AED80112097516D901120975CBD982
:1022A3000112097527DA011209757FDA011209751E
:1022B30045DB0112097568DB0112097523DC011284
:1022C300097545DC01120975A6DC01120975D6DE14
:1022D30001120975CFDF011209757BE0011209753F
:1022E3009CE201120975E5E20112097530E301125E
:1022F30009758CE301120975EAE3011209750EE40D
:102303000112097532E40112097567E401120975B6
:102313008FE401120975D4E40112097528E501124D
:10232300097581E5011209757BE60112097519E842
:10233300011209755EE80112097587E80112097532
:1023430010E90112097583E90112097591E9011276
:102353000975B5E9011209750BEA0112097526EA37
:1023630001120975E1EA011209750DEB01120975F4
:1023730050EB01120975B3EB01120975C1ED01129E
:102383000975EDED01120975A8EE011209758CEFBF
:102393000112097520F0011209755B9C051209757C
:1023A300939C05120975B49C05120975F69C0512D8
:1023B30009755A9D05120975649D05120975749D69
:1023C30005120975AB9D0512097554A1051209750E
:1023D3001CA30512097500A505120975A2A505120E
:1023E30009752CA6051209757A2F00120975233079
:1023F300001209750231001209750E3200120975B7
:102403002E3200120975503300120975003500127F
:1024130009756D35001209753E360012097544378A
:1024230000120975BC3700120975F73700120975D8
:102433005038001209758B3800120975D438001210
:102443000975683900120975FE3900120975D33A06
:1024530000120975A63B00120975343C0012097578
:102463005A3C00120975873C00120975B83C0012EA
:102473000975853D00120975953D00120975E83D02
:1024830000120975F53D00120975023E0012097527
:102493000B3E001209756F3E00120975CD3E001206
:1024A3000975183F00120975333F001209755A3F29
:1024B30000120975773F00120975833F00120975F1
:1024C3001441001209752D4100120975A94100122A
:1024D3000975BC4100120975CC410012097570429F
:1024E30000120975DC4300120975EF4400120975E7
:1024F3008F45001209759945001209751846001297
:102503000975294600120975684600120975964631
:1025130000120975634700120975BA47001209755D
:10252300F3470012097549480012097567480012FC
:102533000975B54800120975804900120975CE491D
:10254300001209751B4A001209759E4A001209758B
:10255300C84A00120975FE4A001209750D4B001294
:1025630009756C4B00120975E44B00120975254C73
:1025730000120975754C00120975A04C00120975FB
:10258300BA4C00120975D44C00120975A94D0012FA
:102593000975B34D00120975EE4D00120975FE4D14
:1025A30000120975074E00120975584E001209757D
:1025B3006C4E001209758E4F00120975A34F00125D
:1025C3000975365000120975AA50001209754F514A
:1025D300001209755A5100120975BD52001209758E
:1025E300D95200120975255300120975935300122D
:1025F3000975C55300120975DF53001209753F545D
:1026030000120975DE540012097529550012097567
:102613007C57001209751458001209758B58001263
:102623000975E85A00120975005B00120975035B0E
:10263300001209750F5B00120975235B00120975FF
:102643002B5B00120975625B00120975565C001260
:102653000975E05C00120975625D00120975E25D9F
:1026630000120975B95E00120975DB5E0012097567
:10267300745F00120975D15F00120975D45F0012EF
:1026830009754360001209758F6100120975A26212
:10269300001209752D630012097540640012097553
:1026A3000765001209753865001209755E65001229
:1026B3000975676500120975966500120975466606
:1026C30000120975F666001209756967001209752B
:1026D3000C68001209757F6800120975BE68001244
:1026E3000975076900120975D288061209756C8885
:1026F30006120975E98706120975BE8C061209755B
:10270300568C061209753B8C061209752B8C061222
:102713000975068F06120975F97F0012097571DABA
:102723000512097563DA051209754CDA0512097584
:1027330032DA05120975C2FF0212097524FF02126B
:10274300097513FF02120975C88C06120975829B5D
:1027530005120975A89A05120975DE9905120975FE
:102763004D9805120975169805120975E897051213
:1027730009759C97051209750597051209757596D4
:10278300051209754F960512097504960512097508
:10279300CE9505120975519505120975BED9051215
:1027A3000975EC9405120975D9D80512097563D812
:1027B3000512097549D80512097518D80512097546
:1027C3000CD705120975F7D605120975EF820612A3
:1027D30009759682061209759B9405120975C393B0
:1027E30005120975339305120975E79205120975E8
:1027F3004E82061209756292051209751D92051221
:102803000975019205120975A990051209752F82A0
:10281300061209757B9005120975F8DC0512097516
:10282300489005120975CC8F0512097552FE0312E3
:102833000975F9FD03120975C4FD031209758FFDAE
:10284300031209755BFD03120975EEFC031209758A
:10285300D6FC03120975B1FC031209758AF9031238
:1028630009755DF70312097564F503120975F0F430
:1028730003120975A1F403120975C98106120975BA
:102883005BF403120975FDF303120975CDE104002E
:10289300000080FB87000100741D35000400381D13
:1028A300250002003C1D260002003E1D27000200F9
:1028B300401D280001004A1D290001004B1D840012
:1028C30004004C1D86000100501D2A000100511D0B
:1028D3002B000100521D2C000100561D2D00080085
:1028E300541A2E000100571D2F000100581D3000FF
:1028F3000100591D310001005A1D320001005C1A0C
:10290300330001005D1A340001005B1D3600010035
:102913005E1A380001005C1D39000100551D83005B
:102923000200721D63000100691A64000100531D57
:1029330065000100541D6D0001006A1A7100080052
:102943004C1A66000100711D43000100621D440022
:102953000200631D45000100651D46000200661D5F
:1029630047000800611A48000100681D4B00010080
:10297300691D04000100751DA1000100781D3700C9
:102983000100771D88000100761D3C0001005F1ADD
:102993003D0001005D1D490002006A1D6700010042
:1029A3006B1A4D0002006C1D4E0001006E1D4F009E
:1029B30002006F1D3E000100611D510001005E1DFC
:1029C300520001005F1D53000100601D540001000F
:1029D300601A00000000000000013636010100010A
:1029E30002010001030100010401060605020000C3
:1029F300070100340801000F090401010D0100FF64
:102A03000E08000017020000190100FF1A0100015F
:102A13001B0100FE1C0100081D0200001F01000134
:102A230020010001210200002301000F2402000005
:102A33002601000127010008280200FF2A010007E0
:102A43002B0102402C0100002D0100012E01000189
:102A53002F0100FF30010B1D310800003A0100086F
:102A63003B01000F3C0100013D0100FF3E0400005B
:102A730042040000460400004A0400004E04000023
:102A830052040000560400005A04000001037103BD
:102A930001030103010301030103220302030103F1
:102AA30010030003000300030003000300030003FB
:102AB3004203000324030603000300030403120379
:102AC3002503230325032303040304030003000353
:102AD30000034403000300032303000365032100F1
:102AE3003503810300030503000300030003000310
:102AF30025032303030271023001600211027002F5
:102B03000102020202028002100261023A00410045
:102B1300630273027202620243020002130238006C
:102B2300000200020402120200020002000200027C
:102B330004020402370037003C0244020002390059
:102B43000002000265020002350281020002050252
:102B530082028302000201017101010101011101DD
:102B630001013101010101018001100161013B00FB
:102B73001400630173017201620143010001130137
:102B830006013D01350004011201000100010001AD
:102B9300000104010401330133013C01440132010A
:102BA30036000001000165010001350081010001CB
:102BB30005018201830100010300710030016000FF
:102BC30011007000310220035004800010006100E6
:102BD30000001400630073007200620043000000F1
:102BE30013000600000000000400120000000000B3
:102BF3000000000004000400370037003C024400DA
:102C030000000000000000006500000035008100A6
:102C130000000500000083000000030471040204A7
:102C23006004110470040204020401040204100489
:102C3300610400041404630473047204620443040F
:102C43000004130406040004000404041204000432
:102C530000040004000451046400000400040004A0
:102C63004404000400040004000465040004350463
:102C73008104640005040004830400043600010099
:102C8300060000000F00000000000000000000002C
:102C9300000003FFFF00000403FFFF0000FFFF0F1E
:102CA300F4010005C4040320000100000B00000030
:102CB300000000000003010F0000000000000000FE
:102CC3000000000000000000000000000000000001
:102CD300000000000000000000003A1488144014B3
:102CE300741300000000000000000000000000005A
:102CF3000000461474134C147413521474135814B0
:102D030074135E147413641474136A148E1470149D
:102D1300741300000000000000000000000076149F
:102D2300A0147C1474137614A0147C1474136A1402
:102D33008E1482147413000042181300CA171F0064
:102D4300D0171F80D6170100421802005217030044
:102D5300581704005E17050064170600701730004B
:102D63008E173100881732009A173300A0173500E9
:102D7300A6173400AC173600B2171100BE171400A3
:102D8300C41715008217FFFF000000000300200195
:102D93001A830000000020011B830000040042018D
:102DA3004B800000050042016D80000006004201D7
:102DB3007E800000070020011C83000010004203F6
:102DC300081D000011002003CC180000120010039E
:102DD300191D060000001001CF180A0000000200B0
:102DE30000000400000008000000100000002000A4
:102DF300000040000000800000000001000000020D
:102E03000000000400000008000000100000002083
:102E1300000000400000017C2006A62008A0200B33
:102E2300BE20109A1D0282200594200788200C647E
:102E3300200D702064961BFF000007ECFDFDFDECE8
:102E4300DCDCCCBCACAC9C9C8C7C7C6C6C5C5C5C3F
:102E53004C4C3C3C2C2C1C1C00160F00000B150B7F
:102E6300020002220F3300000E5A69674265654172
:102E73006C6C69616E636530390000000406000004
:102E830004060001040600020401030507090B0DF3
:102E93000F00020406080A0C0D140AE5D5C5B5A5F2
:102EA300A5958585756500034A49434E181A25057E
:102EB3000200393D3F373C3C362C442D00011916A6
:102EC30018161618230300303017181921301B1D4C
:102ED3001F30303016181920231A1C1E300C0E0216
:102EE3000B040B0A0708000F020402010101010988
:102EF3000200BE040AE8030000FA06000000003DD9
:102F03002EE8030E009C2E7F00050C1E04040A10FD
:102F130010000C2804040A000903010C0905081514
:102F23000800FF030803FFE0041237AAA2E792AFE9
:102F330022E4F0A3F0A3F022A3122F34A3F0227F04
:102F43000C0206CBE0F508E4F509F50AF50B22744B
:102F530001F090059BE0640F2274091209A57F0418
:102F63000206CBA3A3E024F5C39413229005BB125E
:102F73005AA37A147B0022C082C083901B857448B5
:102F8300F0A37424F0A3745AF0A37424F0901B8963
:102F93007430F0A37424F0A3742AF0A37424F0A370
:102FA3007466F0A37424F0A3746CF0A37424F0A3E8
:102FB3007460F0A37424F0A37418F0A37424F09045
:102FC3001B95743CF0A37424F0A37442F0A37424FF
:102FD300F0A37436F0A37424F0A37472F0A37424E2
:102FE300F0901BA6125030600612529A1212609093
:102FF3001BA31247537408F0A3E4F0A3F0901C46FC
:10300300F0901BA8F07C0BFDF97AA97B1B12118EA3
:103013007C0B7D0079007AB47B1B12118E02475C16
:1030230074F712046D74F7120A6EEAFEEBFF124591
:103033007A74051230F07403F0EE2402FAE43F12BE
:1030430030CA242DFCE43FFD8C828D83123208129A
:1030530030D9600812395274FFF0A3F0EE242BE448
:103063003F1C1CFD8C828D83A3E0C0E08A828B838E
:1030730012458BD0E01230D988828983124D832484
:103083000312586D1213507408120CB97403F090A4
:1030930005B01207CE7402120A387903EEFAEFFB79
:1030A30012260A74021209A5E9F5087007EEFAEF71
:1030B300FB1224EAA9087409023962F582E43FF598
:1030C300831264D8124D78FB8A828B831230E8E82E
:1030D300F0A3E9F0EE22125AC11230E8E8F0A3E9B6
:1030E30012603DE0221231D38A828B8322F0A3E463
:1030F300F01230F822EE240DF582E43FF5832274BA
:10310300F112046DEAFEEBFF8C088D09890A123176
:10311300DD8A828B831231D3740F120CB91231F60C
:10312300E824FF18E934FFF988828983E50A12311C
:10313300E89005B51231E59005B41231E57411122A
:103143000CB91231F6EE2404FCE43FFD880B8A82AD
:103153008B83E0F50C8C828D83E0250CC3950B12D9
:103163005ABDE8F0A3E91244E7A3A3A3A3A3A3A32F
:10317300A3E064037008124843F0A3E4800312340D
:10318300E91230F37409F0750CA9750D1B750E0067
:10319300780C12098E1234DD12118274031209A500
:1031A300750CFF750DFF780C120992AC08AD097907
:1031B30003EEFAEFFB12260A74021209A5E9F508D9
:1031C3007007EEFAEFFB1224EAA9087F070206CB89
:1031D300E024FFF8A3E034FFF922EE2402FAE43FEF
:1031E300FB221232081231EC22F0E824FF18E934F2
:1031F300FFF922E0F50CA31232081231EC88828920
:1032030083E50CF022E08882898322C082C0839008
:103213001BC5E0C39408400474078001E08A828BD5
:1032230083F033333354F8F902475C74F012046DBE
:10323300EAFEEBFF890C8C0E8D0F750A00A2AFE43A
:1032430033F50BC2AF901BBF803F123316503712BA
:10325300332764037030EE24F9FEEF34FFFF850853
:1032630082850983A3A3E02405FCA3E03400FDEEDB
:10327300FAEFFB121350EE24FF1EEF34FFFF74101E
:10328300250AF50A150C1244B41264D4E50C600641
:10329300E508450970B4E50BA2E092AFA2AFE433B1
:1032A300F50BC2AF901BBF802C2402FAE43509FB57
:1032B3008A828B83125AAC2406F582E438F5831292
:1032C30033348A828B8312331CA3A3123334050A4B
:1032D300150C1244B41244C96022123327640270DD
:1032E300F1123316E50840C1123617A2E550E38503
:1032F3000E82850F837401F0E50C70D6E50BA2E016
:1033030092AF8E828F83E50AF0EE24FFFAEF34FF4B
:10331300FB8035123622A2E62212332022125EA14E
:10332300A3A3A322850882850983125E9B1254D529
:1033330022E08E828F83F0EE24FF1EEF34FFFF2204
:103343001226D674041209A57F080206CB74EC1268
:10335300046D74F5120A6E89138A128B0F85188215
:10336300851983E4F004120A301223FAE9F8900570
:103373009AE0292434F508FA7B001211AC8A0A8BEF
:103383000BAE0AAF0BEE4F70030234D1EE2402F5FD
:103393000AE43FF50BA808EE28F8E43FF9850A8212
:1033A300850B831230D22404F510E43FF511851008
:1033B30082F583E4F090059AE0FCF8C3E498F8956D
:1033C300E0F9850A82850B83E028F508A3E039F547
:1033D30009900598125765750E00780C12098E7DB9
:1033E30000AA08AB0912118274031209A5AC18AD27
:1033F300197401120CB9E0F9E50824FFFAE5093460
:10340300FFFB1224008A828B83E4F0EA24FFF50891
:10341300EB34FFF509E50FC454F0F9901C47E0C401
:10342300333354C0F8900594E0A2E0E43313134817
:1034330049440F1234F1E512C454F0451385088250
:10344300850983F0A808850A82850B83E0FA851035
:1034530082851183E02AC398F0850A82850B83E86D
:10346300F0A3E509F01234E91230F3E4F0740A1220
:103473000CB9E4F07508B475091BF50A780812094C
:103483008E1234DD12118274031209A58518828508
:103493001983E06009EE240E1246104408F0122549
:1034A300F2E9F9E4F508F5097808120992740412AF
:1034B3000A38EEFAEFFB12260A74021209A5E97024
:1034C30006EEFAEFFB800BEEFAEFFB1211B27A0075
:1034D3007B00740B1209A5022F427C0B7D00EE24A6
:1034E30018FAE43FFB2212457EE4F0A322E08508AC
:1034F300828509831234FB22F01257392274F312A6
:10350300046D8A0A8B0BA2AFE433F50CC2AF7508C6
:1035130000750900901BBF802C12373E5024850A8A
:1035230082850B83A3A31269018E828F83A3A312C7
:10353300529D1225F8E9600A123564C2E6F08E083E
:103543008F091237331239EC70CFE508450960064D
:1035530012361ED2E6F0E50CA2E092AF7F0502061A
:10356300CB12356822125752E02274F012046DEA2E
:10357300FEEBFF8C0C8D0D750E00A2AFE433F50F3F
:10358300C2AF750800750900901BBF8020850A082B
:10359300850B0912361ED2E4F0E508123617D2E77E
:1035A300F0E50A24FBF582E50B34FFF583E0F50A29
:1035B300A3E0F50BE50A450B6043E50A12439F358B
:1035C3000BF583E0A2E750D9850A82850B83A3A379
:1035D3001207CEAC0CAD0DEEFAEFFB1225FE740212
:1035E3001209A5E960BBE508450960A1E508240DBA
:1035F30012362A64017006123633D2E4F0E50FA2C4
:10360300E092AFE508450960061224E4750E01A9AE
:103613000E02334B1243C912362D2212362222E5F3
:1036230008241112362A22F582E43509F583E022B3
:10363300850882850983125E9BE02274F212046D71
:1036430074FE120A6E750C00750D008518828519BB
:1036530083E4F0A3F0A2AF33F50AC2AF901BBFE03F
:10366300FEA3E0FF8035EE24FBF582EF34FF126406
:10367300D2780C120992EEFCEFFD7ABF7B1B12117C
:10368300E274021209A5EEFCEFFDAA18AB191211A0
:10369300D0AE08AF09901BC5E014F0EE4F602712BF
:1036A300373E501DEE240BF8E43FF988828983E00E
:1036B30024FFF0A3E034FFF0888289831250306046
:1036C300A512372F8099E50AA2E092AF901BC5E0BF
:1036D300603190059BE0640F6006901C46E0702308
:1036E3007A9D7B1B1226E290830E1207CA7A9D7B7A
:1036F3001B1226D674041209A5800874F012497AA5
:103703001224D8AA18AB191211D68A0A8B0BAE0A47
:10371300AF0BEE4F601312240C123564A2E28E82BB
:103723008F83A350D674E980D40239F48E0C8F0DA5
:10373300EE24FBF582EF34FFF58322123568A2E70E
:103743002274F712046DEAFEEBFF12240C12458873
:103753001205E5E964019005B7700AE02401F8A3B6
:10376300E034008004E0F8A3E0F9124BD6124F884E
:10377300901BC5E0702190059BE0640F70197A9D42
:103783007B1B1226E290830E1207CA7A9D7B1B12C3
:1037930026D674041209A5A9A8C2AF901BC5E004DC
:1037A3001237AAA2E7800DF0E9A2E7E433F8E92291
:1037B300E508A2E092AF024A1674F712046DEAFE1E
:1037C300EBFF1237F1F012240CEEFCEFFD7ABF7B16
:1037D3001B1211DCA9A8C2AF901BC5122F2A90059A
:1037E3009BE0640F700579081225AA024A16123568
:1037F30068C2E42274F712046D74EA120A6EEAFED8
:10380300EBFF900594E0604085188285198374016D
:10381300F0120CB9E41238C9120CB9AA82AB8312A4
:1038230013508E828F83123639C0E0740A120CB99A
:10383300D0E0125AD2740B120CB9AA82AB831226AF
:1038430022AA18AB19121A76741602396274F71287
:10385300046DEAFEEBFF1223EEE9F974DC69601EE6
:1038630074DD69601974E469601474F369600F743A
:10387300DE69600A74DF69600574DB697007EEFA5C
:10388300EFFB1225B0024A1674F712046D74EB12A3
:103893000A6EEAFEEBFF85188285198374061238D7
:1038A300C9120CB9AA82AB83121350125AD7740AE5
:1038B300120CB9AA82AB83122622AA18AB19121AC8
:1038C300767415023962F0EE2413FCE43FFD7402B2
:1038D3002274F712046D74F7120A6EEAFEEBFFEE20
:1038E300242D12461060651241A1AA18AB191213B8
:1038F300507408120CB97403F09005B01207CE127D
:1039030039521207CE9005C3E0F97404120A38EE57
:10391300FAEFFB1223F474041209A5E9F974DC69C4
:10392300602374DD69601E74E469601974F369606F
:103933001474DE69600F74DF69600A74E8696005F6
:1039430074DB697007EEFAEFFB1225B00230B9EEB3
:1039530012395722242BF582E43FF5832274031294
:1039630009A5024A1674F212046D8A088B09750CB4
:1039730000750D00750AE7A2AFE433F50BC2AF90F3
:103983001BBF800312372F1239EC603512373E50BC
:10399300F312460D640170ECEE242FF582E43F121E
:1039A3003B9BE06870DE780C120992EEFCEFFD7A27
:1039B300BF7B1B1211E274021209A5901BC5E01410
:1039C300F0E50BA2E092AFEE4F6013EEFAEFFB12BD
:1039D300240C79F0EEFAEFFB1225B0750A00A90A60
:1039E300AA08AB091225B0800DE0FEA3E0FFEE4F5D
:1039F3002274021209A57F060206CB74F412046D29
:103A030074F7120A6EEAFEEBFF8E828F83A3E064E3
:103A1300F37003023AA88E828F83A3E064DF7003FE
:103A2300023AA88E828F83A3E064E860788E828F47
:103A330083A3E064DB606E12244EE9F508705EEE4A
:103A4300240E1246106056123AB2122496EA4B60C4
:103A53004C7408120CB9123ABC1207CE7508FF75E4
:103A630009FF78081209928E828F83A3A3A3A3A3CD
:103A7300A3A3A3E0F97404120A381223F474041202
:103A830009A5E9F50874F36508601274DF65086039
:103A93000C74E86508600674DB6508700F8E828F0E
:103AA30083A3E508F0EEFAEFFB12245A022F5CEE33
:103AB300240FFAE43FFB790922740212629A74FF1D
:103AC300F0A3123AC922123ACD22124D8CA3A3229B
:103AD30074F512046D8A088B097E008A828B83A396
:103AE300A3A3A3A3A3122F6640027EE88A828B833B
:103AF300A3A3A3A3A3A3A3A3A3A3E0C394104004DA
:103B03007EE880138A828B83A3A3A3A3A3A3A3A387
:103B1300A3A3E0640F600A901C23E0540870027EA4
:103B2300E8EA240BF582E43509123B9BA3A3A3A384
:103B3300A3A3A3A3E0C398500CEA240B12362A6470
:103B43000F60027EE89005B4E0F47003A3E0F47024
:103B5300027EEC7A237B0012125A901BA61252ADFE
:103B6300901BA61250306029850882850983A3A380
:103B7300A982AA8389088A09750A00780812098E1E
:103B83007C237D0012529A12118274031209A580BC
:103B9300027E1AEEF902643BF583E0F88A828B8396
:103BA300A3A32274F512046DEAFEEBFF8E828F83CA
:103BB300A3A3A3A3A3A3A3A3E090059B12617D905A
:103BC30005B6126163900596126182901C47F0F965
:103BD300120EC4901C47E06018EE2404FAE43FFB85
:103BE3007950120EACEE2406FAE43FFB79E1120E93
:103BF300AC901C46122F5260047401800274009032
:103C03001BA812616912098E7C0B7D007AA97B1BAC
:103C130012118274031209A5EE2418F508E43FF586
:103C230009780812098E7C0B7D007AB47B1B026431
:103C33003374F712046DEAFEEBFF8E828F83A3E0E9
:103C4300700612529A1224548E828F83742C124956
:103C53007A1225BC024A1674F712046DEAFEEBFFD2
:103C6300901BA6125030600D12529A901BA6E4F0DE
:103C7300A3F01212608E828F83740812497A121A8B
:103C830076024A1674F612046D901C46E060139097
:103C93001BA8E0700D123CA8122406EA4B60031225
:103CA30024EA025DDD900596E0FB9005B6E0FA900C
:103CB300059BE0F92274F412046D74E7120A6EEAAC
:103CC300FEEBFF750B018E828F83A3A3A3A3A3A394
:103CD300A3E0A2E25068EE242BF582E43F1268FFD2
:103CE300123D76122412E97055908238E064017017
:103CF30005750B008048123D7E12098E7C0B7D00FA
:103D03007411120A3012118274031209A51225F2DA
:103D1300E9FA740E120A28880889097808120992A8
:103D23007508307509007808120992123952120782
:103D3300CE125A73790112261074061209A585183A
:103D43008285198374101238C9120CB9AA82AB8305
:103D5300121344123952125A9F740B120CB9124F98
:103D630088740D120CB9E50B1247ED121A7674190B
:103D7300022F5EEE2413FAE43FFB22EE24081261C5
:103D83007122C082C083901C47E060031226640244
:103D9300475CC082C083901C3E7485F0A3741BF003
:103DA300A37489F0A3741BF0A37495F0A3741BF0A0
:103DB300901D8C741DF0A3742CF0901C2874E8F0F3
:103DC300A37423F0901BCA741EF0A37424F0901BF9
:103DD300CC7424F0A37424F0901C23E044028001EB
:103DE300E4F002475CC082C083EAFCEBFD79030286
:103DF3004DF8C082C083EAFCEBFD7905024DF8C0A3
:103E030082C0837908025F6EC082C08374FE120A87
:103E13006E901BD274D2F0A37424F0901BD474CC94
:103E2300F0A37424F0800D7ABF7B1B1211D61247C6
:103E3300E31225E0901BBF12503070EB901BC112B0
:103E43005030600F7AC17B1B1211D61247E3122543
:103E5300E080E9901BBFE4F0A3F0901BC5122F355F
:103E63007402800274111209A502475C74F61204ED
:103E73006DE9FF74B429F582E4342EF583E493FEEF
:103E8300FA7B001211ACEA4B6011EA2E124F7E8AC4
:103E9300828B83A3A3A3A3E4F0802C7A027B00127A
:103EA30011ACEA4B601D74CA2FF582E4342EF583FE
:103EB300E4938A828B83F0A3741AF0901C1EE0F9BA
:103EC3001211B87A007B00025DDDE9FC740629F863
:103ED300EAA2E0501EE875F00A84E5F0F960147474
:103EE3000A28C399F8E9C394054004740A28F874AE
:103EF3000B28F8ECC3941340047A1480027A06EA80
:103F03002879002409F85001097A0A7B001202A5D6
:103F1300E8F9020972C082C083901C23E054026056
:103F23000A121A7CE9600479018002790002475C75
:103F3300C082C083901C23E054026016901BC5E02E
:103F4300700C12502D600BE0C81244C1500479016B
:103F53008002790002475CC082C083908235E0F81A
:103F6300901BC7E0C39850051211AC80047A007B04
:103F73000002475CC082C0831225E0790002475CDF
:103F830074F712046D74FE120A6E85188285198304
:103F9300EAF0A3EB1240F2A3A3A3A3A3E0600A14E5
:103FA300606024FE606902407390059BE0640F60CB
:103FB300181225B6E9701285188285198312529D4D
:103FC300901BCE12458B1205E59005C3E0C0E0853A
:103FD3001882851983124D56D0E01240F2741412E0
:103FE30062961269017AC17B1B1211D0A8A8C2AFD5
:103FF300901BC7E0041252B379201225AA7402025F
:104003003962851882851983125EA3741580D08561
:1040130018828519831240D5A3A3E06053851882C3
:10402300851983E02402F8A3E03400F988828983A8
:104033001266D4E0C0E0851882851983E0FCA3E012
:10404300CC2406F582E43CF583D0E0125ADF888263
:1040530089831252AD8518828519831243BD851851
:104063008285198360131240DA60051240E24043EF
:10407300AA18AB191225E080841240DA60F21240CC
:10408300E2501C1244D1FA8518828519831240DC50
:10409300F874EA124F79342EF583E4936A60148539
:1040A30018828519831240DA640870C41244D164FB
:1040B3000870BD1244D1141240FA240AC0E08518D6
:1040C3008285198312458BD0E01240FA04023FE245
:1040D300E0F8A3124DA322E0F8A3E01241012285E8
:1040E3001882851983125AB0124102C3940A22120C
:1040F300410CF58388822212410C12410122C8240B
:1041030006F582E438F583E02212629AE0F8A3E030
:1041130022C082C083901BD61250306008125EA466
:104123001205E58002790002475C74F712046DEA18
:10413300FEEBFF1230F87401F0EE2430F582E43F19
:10414300F58312580D1230D22432124610C0E0EE1D
:104153002413F582E43FF583D0E0F0EE24331246D6
:1041630010C0E0EE2414F582E43FF583D0E0F0EED6
:10417300242CF582E43FF5831207CE1241A1EE24ED
:104183002E124610F912260A74021209A5E9F5083F
:104193007007EEFAEFFB1224EAA908024A16EE248E
:1041A30023FCE43FFD22C082C0831225B6E96004EC
:1041B30079208002790102475CC082C083EA1243FE
:1041C3009F124260D2E0023DE4C082C08312425A91
:1041D30064017011124265400C8A828B83A3E0F95B
:1041E3001225B0806FEA241012425DA2E650128AB3
:1041F300828B83A3E0F9901BD012458B1205E580D7
:104203005312425A6401700D12426550088A828B20
:1042130083743080368A828B83A3E0641B8A828B0B
:1042230083700474228024A3E0700D12425AF87440
:10423300D5124F79342E800B12425AF874CA124F9A
:1042430079342EF583E4938A828B83F0901C1EE0ED
:10425300F91211B802475CEA240DF582E43BF583B9
:10426300E022EA1243C93BF583E0A2E32274F7128A
:10427300046DE9FE12502D7003024396EE60117433
:104283001B6E7013E0C81243996405700302436107
:10429300125E93E402436574E96E70621243B57073
:1042A3000B121A82E960051243CF606279EE120E97
:1042B3002E901BC81243B2901BC8603B1243D2908E
:1042C3001BC8700B1243B214F0120FF00243961284
:1042D30043BDC2E71244DD1243996403700C125AC2
:1042E300A912439F124107D2E2F079ED120E2E126A
:1042F30043A51205E58075125E9674E9806474E146
:104303006E703E121A82E960551243CF70509005C9
:10431300BDE0C0E0125AA92412F582E438F583D037
:10432300E0F09005ACE0C0E0901BC81240D312400F
:10433300D3D0E0F09005ACE004F07901120FD880FF
:1043430052741C6E7018901BC812529D901BD81289
:10435300458B1205E5901BC8E4F0A3F08035125E8F
:1043630093EEF0901BC812529D1224D8125AA91230
:104373005A7BE0548060109005C3E0F9120EE89078
:1043830005C2E0F9120EDC901BC8E4F0A3F079102B
:104393001225AA024A16240D124104222411F58281
:1043A300E422901BC81252A1901BCC125E9D22E006
:1043B300F8A3E0C8241212410422E0F8A3E0C812D3
:1043C30043C9124107222410F582E422901BC8122C
:1043D3005AB0125A7FE054042274F412046D750A21
:1043E30000750B00A2AFE433FFC2AF12502D600380
:1043F3000244991245881205E5E94410F8901BBF61
:10440300800985080A85090B1244B41244C9700354
:1044130002449912361E586870E8780A120992AC61
:1044230008AD097ABF7B1B1211E274021209A59031
:104433001BC8E508F0A3E5091244DD1244C1405D41
:10444300901BC6E014F0EFA2E092AF901BC8E024EB
:104453000EF8A3E03400F9880889098882F58312ED
:10446300529D901BC81244D7F912249CE9901BC398
:10447300F01244E5E05480901BC86026125AAC2425
:1044830013124104F9120EE8125AA924141241041A
:10449300F9120EDC8018EFA2E092AF8011901BC5D9
:1044A30080A11243BDA2E1B3E433F9120FD8022F66
:1044B30061E50824FBF582E50934FFF58322241125
:1044C300124104A2E7221264D8E50845092285189F
:1044D30082851983123320A3E022F0901BC8125A5D
:1044E300B022A3E4F08508828509832274F71204BD
:1044F3006DEAFEEBFF1225DAEE2410124610A2E35A
:10450300400C12460D640170059082338003908243
:1045130034E0F9EEFCEFFD7ABF7B1B1211E8E96092
:1045230046EEFAEFFB901BD212458B1205E5EE2403
:104533000E12461054047020A8A8C2AF901BC6E008
:1045430004125293FAE8A2E792AF12457AA3E05419
:104553000170211224E4801CEEFAEFFB901BCA12B7
:10456300458B1205E5800D8E828F83A374F112496A
:104573007A1224D8024A1612457E22EE240EF582C0
:10458300E43FF58322901BD4125E9D22C082C08338
:104593001224E402475C74F712046DEAFEEBFF7920
:1045A30000901C23E05402700CEE24301246105489
:1045B30004600279E8901C23E05460700CEE243010
:1045C3001246105402600279E88E828F83A3A3A35C
:1045D300A3E0F8908239E0C398500279E8EE242EE4
:1045E300124610700CEE242B124610700479F580DD
:1045F3000BE970051224C6E9F9E96007EEFAEFFB4F
:104603001225B0024A1634FFF509EE240DF582E4B3
:104613003FF583E022C082C0838A828B83740DF0CE
:10462300121A7602475CC082C0838A828B83E4F0CD
:10463300A3F0EA243012425D54049082337012E0F6
:10464300F8901BC6E0C398401279F11225B00247D7
:104653005CE0F8901BC5E0C39850EE901C1EE0F997
:104663001211B880E974F612046DE9FE244CFAE4E1
:104673003400FB1211ACEA4B6012EE8A828B83A3E7
:10468300A3A3A3F0EA244C124F7E80047A007B009C
:10469300025DDDC082C083901BDA7432F0A37425FF
:1046A300F0A37462F0A37425F0A37438F0A3742507
:1046B300F0A3743EF0A37425F0A3745CF0A37425F7
:1046C300F0A37450F0A37425F0A3744AF0A37425E7
:1046D300F0A37468F0A37425F0A3746EF0A374259B
:1046E300F0A37474F0A37425F0A37480F0A374256D
:1046F300F0A37444F0A37425F0A3742CF0A37425E1
:10470300F0A37426F0A37425F0901BF67456F0A35F
:104713007425F0A3747AF0A37425F0A3749AF0A31C
:104723007426F0A37486F0A37425F0A3748CF0A30D
:104733007425F0901C1AE4F0901C1DF0901C0612D6
:1047430047537402F0901C0F1247537401023DE467
:1047530074AAF0A37425F0A322D083D08202097235
:1047630074F512046D74F1120A6E8518828519832B
:104773007402F07401120CB9E9F060047AFF7BFF54
:104783007402120CB91252AD75081275091C750A20
:1047930000780812098E7C0B7D007407120CB9AAED
:1047A30082AB8312118274031209A5AA18AB1912E2
:1047B3001A76740F02643874F712046D74FD120ACA
:1047C3006E851882851983740AF07401120CB9E995
:1047D300F07402120CB9EA1247ED121A760239602C
:1047E300851882851983EAF0A3EBF0AA18AB192286
:1047F30074F612046D74F7120A6EEAFEEBFF1248A8
:10480300431230F0740212496BAA18AB1912134405
:10481300EE242E1230BE243012587A1209927402FA
:10482300120A3879831A1AEFFB12260A7402120944
:10483300A5E9F5087007EEFAEFFB1224EA025DD64C
:1048430012457E74012274F012046D126321120C5E
:104853004A7808790C120306780812098A7A097BC8
:104863001C02334374F412046D74C6120A6E90056D
:104873009BE0640F6010851882851983742E12479C
:10488300ED1225BC80277A007B1C1226E2122F6FC3
:104893001202AD88088909E4F50AF50B78081209B4
:1048A3008A7A007B1C1226D674041209A5743A0274
:1048B3002F5E74F512046DEAFEEBFF8E828F83A3E5
:1048C300E0F86003024954EE242D1246106402609E
:1048D30007E06403600278E8EE2423F582E43FF501
:1048E30083122F68400478E8806AE87064EE24231A
:1048F300FAE43FFB79E1120EACEE242EFAE43FFB1F
:104903007950120EACEE242D1246106402700E1272
:104913005A69125A9F9005AA124F8880129005AACD
:1049230074FEF0A30412496B7AA17B05121350EEB7
:104933002418123D8112098E7C0B7D007A127B1C98
:1049430012118274031209A5EEFAEFFB122520E976
:10495300F8E86011E88E828F83A3125CCB74171280
:10496300497A1225BC02643BF0EE2425FCE43FFDAA
:10497300228E828F837429F0EEFAEFFB2274F612F3
:10498300046D74F7120A6E901C1DE0703B7401F005
:10499300F9120FA2AA18AB191225EC7508127509A2
:1049A3001C78081209927508017509007808120924
:1049B300929005B01207CE7406120A387A0379056D
:1049C30012261074061209A5025DD874F712046D3D
:1049D300EAFEEBFF7901120FA88E828F83E0642039
:1049E3007004A374EBF0901C1DE0A2E25003C2E23A
:1049F300F0E0A2E15008124C1812251A800C8E82A6
:104A03008F83742A12497A1225BC8007EEFAEFFBD2
:104A13001226587F010206CB74F412046D74FE1241
:104A23000A6EEAFEEBFF7901120FA87A007B1C12D3
:104A330026E27A097B1C1226E2124D6285188285D2
:104A43001983124D96E0F50B700FAA18AB19795321
:104A5300120EAC1264C8120EAC123D7E12098E7C8B
:104A63000B7D007A127B1C12118274031209A58537
:104A7300188285198312529DA90B122514901C1DAF
:104A8300E0A2E1500C7A008E828F83A3E0F9122515
:104A93001A901C1DE4F07402022F5E74F712046D69
:104AA300EAFEEBFF8E828F83A374EBF0901C1DE074
:104AB300A2E150077A0079EB12251AEEFAEFFB1206
:104AC3002550024A1674F712046DEAFEEBFF7901D2
:104AD300120FA87A007B1C1226E27A097B1C12268D
:104AE300E2901C1AE4F0901C1DF07AFF7BFF8E828B
:104AF3008F83A3E0F9122514024A1674F712046D8A
:104B0300EAFEEBFF12254A024A0F74F712046DEA1C
:104B1300FEEBFF7901120FA88E828F83A3A3A3A3B9
:104B2300E060047400800274EB124B5F5003C2E236
:104B3300F0E0A2E15008124C6112251A8014A2E0A1
:104B430050108E828F83742AF0A374EB12497A1269
:104B530025BCEEFAEFFB1224FC024A168E828F83E9
:104B6300A3F0901C1DE0A2E22274F612046DEAFE8B
:104B7300EBFF901C1DE0D2E1F07901120FA28E82AF
:104B83008F83A3E0703C1225F2E9FAEE240DF508B9
:104B9300E43FF50978081209927508017509007850
:104BA30008120992124BD61207CEEE2402FCE43F00
:104BB300FD790512261074061209A5E98E828F83EA
:104BC300A3F08E828F83A3E060067A00F912251A80
:104BD300025DDD124BDA22EE240BF582E43FF5830E
:104BE3002274F712046DEAFEEBFF7901120FA88E0F
:104BF300828F83E064207004A374EBF0901C1DE0AB
:104C0300A2E25003C2E2F0E0A2E15006124C1812F5
:104C1300251A024A16C2E1F07A008E828F83A3E03E
:104C2300F92274F712046DEAFEEBFF7901120FA863
:104C33007A007B1C1226E28E828F83A3A3A3A3E0B8
:104C430060047400800274EB124B5F5003C2E2F005
:104C5300E0A2E15006124C6112251A024B55C2E143
:104C6300123AC9A3E0A2E4E433FA8E828F83A3E06D
:104C7300F92274F712046DEAFEEBFF7901120FA813
:104C83008E828F83A374EB124B645003C2E2F0E075
:104C9300A2E15006124C1812251A024A1674F71292
:104CA300046DEAFEEBFF7A007B1C1226E2EEFAEFBC
:104CB300FB122574024A0F74F712046DEAFEEBFF30
:104CC3007A007B1C1226E2EEFAEFFB122574024AED
:104CD3001674F712046D74EF120A6EEAFEEBFF12FC
:104CE3005A737AA17B0512133EE9606285188285A7
:104CF30019837409F07401120CB974EFF0124D6248
:104D0300F87402120CB9E8124D96A3A3E0C0E07444
:104D130004120CB9D0E0124D83640870158E828F93
:104D230083A3A3124D56E0C0E07405120CB9D0E082
:104D330080067405120CB9E4125AD27406120CB927
:104D4300AA82AB83122622AA18AB19121A767411FF
:104D5300023962125AB02407F582E438F58322122D
:104D63004D78FB8A828B83125AA388828983E0FC65
:104D7300A3E0F9EC22EE2402F8E43FF9E8FAE92291
:104D8300124D8722124D8CE022F08E828F83A3A3D3
:104D9300A3A322F0A3E9125AC1124DA022E0F8A363
:104DA300125EA4A3A322C082C08312266402475CBE
:104DB300C082C083901C3A74DAF0A3741BF0A3740E
:104DC300F6F0A3741BF0901D867459F0A3742BF0B6
:104DD300A374F7F0A3742AF0901C26740EF0A37446
:104DE30025F0901C23E04401023DE4C082C083EA25
:104DF300FCEBFD79021225C802475CC082C08379AF
:104E030006025F6E74F612046D74FE120A6E901C35
:104E13001F12503060077A1F7B1C1225E0901C255F
:104E2300E4F09018A012503060268007AA18AB193E
:104E33001225E0901C1EE0F91211C48A088B09A800
:104E430008A909851882851983124F88E84970DCFF
:104E53007402025DDA74F712046DE9FA7B00901CA8
:104E63001EE0F91211EE024A1674F712046D74F083
:104E7300120A6EEAFCEBFDE9FE8C828D83E0F87486
:104E8300E0124F79342EF583E493C0E07401120CE1
:104E9300B9D0E0F0640B700DEE8C828D83A3F01219
:104EA3002646024F6CE07003024F6C640C600302F1
:104EB3004F5D741A6E700B7404120CB9E4F0A30204
:104EC3004F5C7404120CB9ECF0A3EDF0EC242F1238
:104ED3004F71C0E07403120CB9D0E0126034120CAD
:104EE300A27406120CB9120C8A8C828D83125A9604
:104EF300740A120CB9124F88EC240E124F7154101D
:104F03006009851882851983E48013EC2412124FFB
:104F130071F89005BDE0C398851882851983F0E088
:104F2300C0E0740C120CB9D0E0F0EC2415124F71F0
:104F3300C0E0740D120CB9D0E0F0EC2416124F71DE
:104F4300C0E0740E120CB9D0E0F0EC2417124F71CC
:104F5300C0E0740F120CB9D0E0F07402120CB9EE79
:104F6300F07401120A30121A767410023962F58253
:104F7300E43DF583E02228F582E422F8E43BF98A54
:104F8300828B83A3A3E8F0A3E9F022C082C08390BD
:104F93001C25E06403700479018002790002475CF8
:104FA30074F712046D901C25E012501A1268FF8AE0
:104FB300828B83E0C2E7F025E0F8EC124F793DF5F0
:104FC30083A3E493FE12501AF5831250306005EE6A
:104FD300901C25F08A828B83E0125026EC28F58200
:104FE300ED39F583E493FCC4540F25E0F8743412CF
:104FF3004F79341CF5831250307005122634801417
:10500300EC540F25E0FCE82CF582E439F5831245D6
:105013008B1205E5024A16125026748428F5827411
:105023001D392225E0F8E433F922901BC8125AA354
:10503300E8492274F112046D74FE120A6E890AEAB9
:10504300FEEBFF125132FA7B001211AC8A088B0976
:10505300EA450960388A828B83E50AF0A3E4F08E7F
:105063000C8F0DF50E780C12098EA80A12513FEA27
:105073002402FAE43509FB12118274031209A5AA6A
:1050830008AB09901C1EE0F91211B8801285188232
:10509300851983E50AF0791AAA18AB191225B07499
:1050A300021209A50231CE74F212046D74FE120AC3
:1050B3006E890B8A088B09125132F50AFA7B0012AA
:1050C30011AC8A0C8B0DAE0CAF0DEE4F604A8E8285
:1050D3008F83E50BF0A3E4F0A80AEE28F8E43FF988
:1050E3008E828F83124F868E828F83A3A3A3A3E422
:1050F300F0F50A780812098EA80B12513F1234E119
:1051030012118274031209A5EEFAEFFB901C1EE044
:10511300F91211B879008014851882851983E50B7B
:10512300F0791AAA18AB191225B0791A0239F47456
:10513300A929F582E4342EF583E4932274BF28F57C
:1051430082E4342EF583E493FC7D0022C082C08385
:10515300E9901C1E023DE474F612046D74FE120AFB
:105163006EEAFEEBFFEE542070378040A8A8C2AF72
:10517300901BC7E014125293F508E8A2E792AF8A96
:10518300828B8312528A901C211252AD1225BC8548
:105193001882851983E0641560077A217B1C122528
:1051A300E07AC17B1B1211D6EA4B70C0EF548070BA
:1051B30012801C901C211252AD1225BC7A217B1C3B
:1051C3001225E0901C1EE0F91211C4EA4B70E4EEC4
:1051D3005410600E851882851983742D1247ED12C1
:1051E30025BCEEA2E0500E85188285198374241223
:1051F30047ED1225BCEE5402600E85188285198393
:1052030074251247ED1225BCEE5404600E851882F6
:1052130085198374261247ED1225BCEE5408600EDF
:1052230085188285198374281247ED1225BCEE5424
:105233004060107401120CB9126295742C1247ED80
:105243001225BCEE548060107401120CB9126295E1
:10525300742F1247ED1225BC901C1F125030602092
:10526300A8A8C2AF901C1F12529D901C1FE4F0A36C
:105273001252B31252AC1225BC7A217B1C1225E0C8
:105283007A007B00024E53E0851882851983F02251
:10529300F0E8A2E7E43322901BA61252A122E0FA1F
:1052A300A3E0FB22A3A3A3A3A3A3EAF0A3EBF0220F
:1052B300125293FEE8A2E792AF22C082C083901CF1
:1052C30021125A9FEA687002EB697007901C21E46F
:1052D300F0A3F002475C74F712046DEAFEEBFFEEF5
:1052E3004F7003122718A2AFE433F508C2AF8E82C2
:1052F3008F831250306028E824FBFAE934FFFB90D7
:105303001C21126901E86C7002E96D7007901C2181
:10531300E4F0A3F08E828F83E4F0A3F01212600214
:1053230037B3C082C083901C487428F0A37426F05E
:10533300A3743AF0A37426F0A37440F0A37426F088
:10534300A374F6F0A37424F0A37446F0A37426F0B8
:10535300A374F0F0A37424F0A374FCF0A37424F0FA
:10536300901C567476F0A37426F0A3744CF0A374C7
:1053730026F0A37452F0A37426F0A3745EF0A37412
:1053830026F0A37458F0A37426F0901C47023DE363
:10539300C082C0839005AAE064FE7003A3E0F470AA
:1053A300097CA17D0512134480158A828B83A3A3F4
:1053B300A3A3A3A3A3A37402F0125515124F88024B
:1053C300475CC082C0839005B4C3E094FEA3E0941D
:1053D300FF400479038002790202475CC082C083E4
:1053E3001255208C828D831254D5687039740268EB
:1053F300701C8A828B8312542EE06870298A828BF8
:1054030083A312542EA3E068701C7901801A7403DD
:10541300687013EC2405FC50010DEA2405FA5001D1
:105423000B12134A8002790002475CA3A3A3A3A330
:10543300E0F88C828D83A3A3A3A3A32274F61204A2
:105443006D7E00740A120CB9E01254C9FF8A828B74
:1054530083A3A3A3A3A3A3A3A3E06F706474026FA6
:10546300704E8A828B83C082C08388828983A3A380
:10547300A3A3A3E0F50888828983A3A3A3A3A3A37B
:10548300E0FBAA08D083D082E06A7003A3E06B70CC
:105493003088828983A3A3A3E0FA88828983A3A3A4
:1054A300A3A3E0F9EA6C7002E96D70157E01801127
:1054B30074036F700CE82405FCE439FD12134AE908
:1054C300FEEEF9025DDDF8A3E0F9888289831254C8
:1054D300D522A3E01313543F540322C082C0838A0E
:1054E300828B83A3A3A3A3A3A3A3A3E06402701447
:1054F300125515E0687003A3E06970047901800F09
:105503007900800BEAFCEBFD7AA17B0512133E02C6
:10551300475C9005AA125AA38A828B83228A828BC4
:10552300831254D5F82274EC12046DEAFEEBFF8C5F
:10553300128D13750A008C828D83A3A3A3A3A3A347
:10554300A3A3E0F510E9A2E75008750CFF750DFF62
:1055530080069005B0125765E9C2E7F511EE240EF7
:1055630012461054206007125746740880041257DD
:1055730046E412576D5404600712574E7480800539
:1055830012574E741012576D5410600612571EE4D2
:10559300800B9005BDE0C0E012571ED0E012576D9E
:1055A300A2E05003750A20540860067410450AF5FA
:1055B3000A8E828F83A3A3E024FFF508A3E012469B
:1055C30009C39402E0400B640B6005E0141234F14C
:1055D3007403450AF50A750B009005D0E064017069
:1055E300118E828F83A3A3A3A3E0C39467400375A3
:1055F3000B1085110E750F00740E780E120B85E5D6
:105603000F450BF50B7414120CB9E0F50EA3E0F57E
:105613000F74026511700E9005B51234F09005B445
:1056230012575C80137403651170121257287CC4DF
:105633007D05AA08FB1213501257358004E511604B
:1056430028E5106014E50E650C7004E50F650D7018
:10565300087440450AF50A8010850882850983E5A8
:105663000D125773E50C1234F785100C750D007489
:105673000A780C120B85E50D450BF50B74026510CA
:105683007015851282851383A31234F085128285E7
:10569300138312575C80137403651070121257281A
:1056A300AC12AD13AA08FB1213501257358004E550
:1056B300106010850882850983E50F125773E50E84
:1056C3001234F7A808A909E824FFF508E9124609E6
:1056D30070059005A080039005ACE0FA04F0EA8819
:1056E3008289831244E7E50B125773E50AF0EE242F
:1056F30004F8E43FF91231DDAC088A828B83E0F5CC
:105703000A88828983E0250AC39C125ABDECF0A360
:10571300E509125C39E4F0F9022F42EE2412F58216
:10572300E43FF58322E50824F9F508E50934FFF59C
:10573300092212573922E50824FFF508E50934FF49
:10574300F50922EE1243C93FF5832212575222EE86
:105753002411F582E43FF58322E0850882850983DD
:10576300F022E0F50CA3E0F50D22F012457EE022D5
:105773001234FB850882F5832274EE12046D890AC4
:105783008A0B8C108D11750C1A7416120CB91264D5
:10579300D4AA08FB1224968A0E8B0FAE0EAF0FEE1F
:1057A3004F60607414120CB912580DE8F0A3E9129B
:1057B30030F3E50AF085080C85090D750E00780CA9
:1057C30012098E1234DD12118274031209A57412A8
:1057D300120CB91207CEAC10AD11A90BEEFAEFFB08
:1057E30012260A74021209A5E9F50C7016E50A24BB
:1057F300F96003147006123564D2E5F0EEFAEFFB9C
:105803001224EAA90C7F0A0206CB125EB212457F6C
:105813002274F612046D74F7120A6EEAFEEBFF7837
:1058230001EE242F1246106002780512457AE81221
:1058330030F0740412586D121344EE242C1230BE4F
:10584300242E12587A1209927402120A3879031A12
:105853001AEFFB12260A74021209A5E9F50870076C
:10586300EEFAEFFB1224EA025DD6F0EE2423FCE409
:105873003FFDAA18AB1922F582E43FF583123208E3
:10588300124D8704F078082274F212046D8A088B93
:1058930009ECFEEDFF8A828B837405F0EE2432124D
:1058A30046108A828B83A3A3F0EA2403F50AE43526
:1058B30009F50B850A82F583125765125A69120C92
:1058C300A2E50C12439F350DF583120C8A125A730D
:1058D300AA0CAB0D121344850A82850B83125EAAB0
:1058E300FAA3E0FB88828983A3A3A31252A7EE2421
:1058F3002F124610C0E0125A88D0E0125AC724155E
:10590300F582E438F583E4125AC7125A7BE4125A3B
:10591300D2850A82850B83E02416FAA3E03400FBC8
:105923001226228E828F83A3A3A3A3A3A3A3E0C0E3
:10593300E0850A82850B83125AAC240DF582E43884
:10594300F583D0E0125AB6FAA3E0FB850A82850BF1
:1059530083125A9FE8240BFCE439FD8A828B83E08F
:105963008C828D83F0A3E4125ADFE0F50B8C828DD9
:1059730083A3E0450B125ABDA3E0FCA30A0AAB8341
:10598300A2E7E433C0E0E8240FF582E439F583D0DD
:10599300E0F074075C600478018002780075F0031E
:1059A30074075CA428F8EA28FAE43BFBE50824051D
:1059B300F8E43509F98A828B83123208125ADF859B
:1059C30008828509831252A788828983E0F50A54E5
:1059D3000725E0FCE50AC4540F5407F50A750B00CC
:1059E3007403780A120B85EC250AF8EA28F8E43BDD
:1059F300F9850882850983A3A3A3A3A3A3A3A3A3D0
:105A0300E8F0A3E9124D83FA8E828F83A3A3E02AE1
:105A1300FAA3E03400FBC3EA98EB9940308E828FFF
:105A230083A3A3E0F8850882850983A3A3A3A3A383
:105A3300A3A3A3A3E0FA8E828F83A3A3A3A3E0C3AC
:105A43009A28850882850983A3A3A38010850882E9
:105A5300850983A3A3A3A3A3A3A31244E5A3A3A399
:105A6300A3A3F00239F9EE2425F582E43FF583225E
:105A7300EE2413FCE43FFD22125A7F22240EF5820A
:105A8300E438F58322125A8C22E82410F582E43993
:105A9300F58322A3A3A3A3A3A3A3A3A3125AA3227D
:105AA300E0F8A3E0F922901BC8125AB022E0F8A351
:105AB300E0C822125CCBA3A3E022125AC122F08ACF
:105AC300828B8322F0850A82850B83125AB022F0DF
:105AD300125AD722EE2408FCE43FFD22125AC1A336
:105AE300AA82AB832274F512046D8C088D09750AA2
:105AF30000780812098E7C0B7D0002643302097260
:105B0300C082C08379181225B002475CC082C0836B
:105B13008A828B83E0C3940B500312262E02475CC8
:105B2300C082C083791980DE74F712046DEAFEEB3C
