:020000040000FA
:060000000200B8020581B8
:03004300020AB3FB
:03004B0002066B3F
:030053000206D2D0
:03007B00020BB6BF
:100083000204DD00000080FB1200C7B90003020078
:10009300B2E47912780EB800028004F709D8FCE4C0
:1000A300900100785F79028002F0A3D8FCD9FA129C
:1000B300022C12008675D0007581BF751000751172
:1000C3000102008B790122C3E09608A3E09608A3FE
:1000D300E09608A3E096226016080808C6C313C674
:1000E30018C613C618C613C618C613C6D5E0EA2227
:1000F3007009080808226016181818C6C333C60802
:10010300C633C608C633C608C633C6D5E0EA22E0FE
:1001130026F008A3E036F008A3E036F008A3E036A3
:10012300F022E647F60809E647F60809E647F60827
:1001330009E647F622E0F608A3E0F608A3E0F6088E
:10014300A3E0F622E6F008A3E6F008A3E6F008A38E
:10015300E6F022251010AF08F510400215118008B3
:10016300F51040021511D2AF22C0D0251010AF08F0
:10017300F510500205118008F51050020511D2AF99
:10018300D0D0222510C582C0E0E51134FFC583C05D
:10019300E0E510C3958224F910AF088583118582A9
:1001A300108008858311858210D2AFCEF0A3E5209D
:1001B300F0A37808E608F0A3DEFAEFF0A3E58124C4
:1001C300FBF8E608F0A3E608F0A30808E608F0A3A6
:1001D300E608F0A315811581D0E0FED0E0F8158183
:1001E3001581E8C0E0EEC0E022851183851082E02E
:1001F300A3FEE0A3F5207808E0A3F608DFFAE0A366
:10020300FFE0A3C0E0E0A3C0E0E0A3C0E0E0A3C040
:10021300E010AF08858210858311800885821085E0
:100223008311D2AFD083D0822275C60000E59EA28F
:10023300E640F9E5C654C74428F5C67515FF75149D
:100243000090619074F5F09061FA7409F09061B2D6
:100253007415F09061AEE4F0906180E0C2E0F07854
:1002630017760008741F6870F8120B971209FCD2F6
:10027300AF53F4FED29043FE018009E0F8E8900208
:1002830058F0D2AF7401651570FAC2AF900258E00E
:10029300FC906198E0FAECF83395E0F9C3EA98E44E
:1002A30099A2D265D03350D380D374F112018690D2
:1002B3000100E0602814602E1460341470030203FC
:1002C3004724FD70030203A2147003020411147087
:1002D300030204191470030204210204289001028A
:1002E300E0F512020428900102E0F51502042890BB
:1002F3000102E0F508E4F509F50AF50BA3E0F50CB6
:10030300E4F50DF50EF50F7408780C1200F3780878
:10031300790C120125A3E0F50CE4F50D7410780CAB
:100323001200F37808790C120125A3E0F50CE4F52B
:100333000E7418780C1200F37808790C12012590CA
:10034300024A8053900102E0F508E4F509F50AF545
:100353000BA3E0F50CE4F50DF50EF50F7408780C1E
:100363001200F37808790C120125A3E0F50CE4F5EB
:100373000D7410780C1200F37808790C120125A380
:10038300E0F50CE4F50E7418780C1200F378087994
:100393000C12012590024F7808120147020428909D
:1003A3000102E0906173F0900103E0906172F090BC
:1003B3000104E0906175F0900105E0906174F090A4
:1003C3000106E0906171F0900107E0906170F09098
:1003D3000108E090616FF0900109E090616EF09088
:1003E300010AE090616DF090010BE090616CF09078
:1003F300010CE090616BF090010DE090616AF09068
:100403006180E0D2E0F0906182E0D2E080169061FA
:1004130080E0C2E0800E906189E0C2E580069061D1
:1004230089E0D2E5F07F080201EC74F8120186E559
:100433001560030204D87817760008741F6870F8F3
:1004430075C30075A20075A30075C30075A400757C
:10045300A50075A60075C30375A20075A30075C337
:100463003075A40075A50475A60090025AE4F0A3A4
:100473007404F0A3E4F0A3F053A1EF43A710C2C2A6
:10048300D2BA75940975F005E51224F5A4F89061C4
:100493008FE0548048F075E1ED75A90175B90175D8
:1004A300E900759100759B0075BF00C2899061A337
:1004B3007406F09061A5747FF0439A01D2A8751376
:1004C3000174422489901D55F07401901D54F075F8
:1004D300E1E37514017F010201ECC0E0C0D0E8C084
:1004E300E0E9C0E0EAC0E0EBC0E0C082C083C0F056
:1004F300E5E9A2E15035E51375F084A4F8A9F07499
:100503004228F8740139F975C311E5A288828983F9
:10051300F0E5A3A3F0E5A488828983A3A3F0E5A56E
:1005230088828983A3A3A3F075E9FDE5E9A2E250DC
:100533003BE5D9FBC39480400B75E1EF75E1ED75A5
:10054300E1E38025E51375F084A4F8A9F074462847
:10055300F582740139F583EBF0901D56E054E0F019
:10056300EBA3F075D60175D70175E9FB75E9007545
:100573009100759B00D0F0D083D082020B86C0E03F
:10058300C0D0E5BF601575E1EF75E1EDE5D6A2E0FA
:10059300500375D68175E1E375BF0075BF00C2894D
:1005A300020B9274F8120186C2B953E4FC75A900D8
:1005B30075B900539AFEC2A875E1EF75E1ED75D6E2
:1005C300817C587D027A017B00790512079690029F
:1005D30059E06009900257E0F5120206689002584C
:1005E3007480F090024EE0641A7004740B8002E091
:1005F30004F0900253E4F0A3F0A3F0A3F090024EB2
:10060300E0F51275F00524F5A4F890618FE05480AD
:1006130048F075E1ED75A90175B90175E9007591AA
:1006230000759B0075BF00C2899061A37406F090AA
:1006330061A5747FF0439A01D2A875130174422413
:1006430089901D55F07401901D54F075E1E37C4EC3
:100653007D027A017B00790412079675E200D2DEEF
:10066300D2B943E4020204D8C0E0C0D0E8C0E0E954
:10067300C0E0EAC0E0EBC0E0ECC0E0EDC0E0C008E1
:10068300C009C00AC00BC082C083C0F0900259E009
:100693007024900253750801750900750A00750BE3
:1006A30000780812011290024F7808120138A378DB
:1006B300081200CA40031205A653E4EFC2C1D0F0EA
:1006C300D083D082D00BD00AD009D008020B80C0CF
:1006D300E0C0D0E8C0E0E9C0E0EAC0E0EBC0E0EC95
:1006E300C0E0EDC0E0EEC0E0C008C009C00AC00B26
:1006F300C082C083C0F074FF120156E5A1A2E4508A
:100703007C90025A7808120138E509851082851118
:1007130083F090025A750800750904750A00750B79
:10072300007808120112A2AFE43385108285118389
:10073300F0C2AF75C33090025A7808120138E50849
:10074300F5A490025A7808120138E509F5A590023C
:100753005A7808120138741078081200DAE508F59F
:10076300A6851082851183E0E0A2E092AF53A1EF4A
:10077300AC82AD837A017B00790112079674011272
:10078300016CD0F0D083D082D00BD00AD009D0082E
:10079300020B7D74F312018674FF120156A2AFE4BB
:1007A30033851082851183F0C2AF781BE62AFE08D9
:1007B300E63BFFEE2403FEEF3400FFC3EE94F1EFBC
:1007C300941A40030209367817E6245EF58208E698
:1007D3003402F583E9F018E62401F608E63400F65E
:1007E30074F465177004741A65187006751700752C
:1007F3001800080808E62401F608E63400F678171E
:10080300E6245EF58208E63402F583EAF018E6246E
:1008130001F608E63400F674F465177004741A657B
:10082300187006751700751800080808E62401F605
:1008330008E63400F67817E6245EF58208E634020B
:10084300F583EBF018E62401F608E63400F674F4B9
:1008530065177004741A651870067517007518000B
:10086300080808E62401F608E63400F6781774F45D
:10087300C396FE741A0896FFC3EA9EEB9F50068A3E
:100883000A8B0B80048E0A8F0BEAC3950AFEEB9545
:100893000BFF18E6245EF50808E63402F509ED902F
:1008A3001D6AF0ECA3F085090DE50DA3F0E508A39F
:1008B300F0850B09E509541FF8A3E054E048F8F06C
:1008C300E50AA3F075D60875D708E5D6A2E340FA82
:1008D300EE4F6035EC250AFCED350B901D6AF0EC0C
:1008E300A3F07402A3F0A3745EF0EF541FFC74E052
:1008F300584CA3F0EEA3F075D60875D708E5D6A239
:10090300E340FA8E178F18801B7817E62AF608E65D
:100913003BF674F465177004741A6518700675173E
:1009230000751800781BE62AF608E63BF6751D00ED
:100933000209E6E51D60030209E67817E6245EF581
:100943008208E63402F5837403F018E62401F608FE
:10095300E63400F674F465177004741A65187006AB
:10096300751700751800080808E62401F608E63430
:1009730000F67817E6245EF58208E63402F583E490
:10098300F018E62401F608E63400F674F4651770EF
:1009930004741A651870067517007518000808089E
:1009A300E62401F608E63400F67817E6245EF582BD
:1009B30008E63402F583E4F018E62401F608E63489
:1009C30000F674F465177004741A651870067517C9
:1009D30000751800080808E62401F608E63400F656
:1009E300751D01851082851183E0E0A2E092AF744A
:1009F3000112016C7F060201ECC082C083741DF5F5
:100A0300D57A528AD4741DF5D374082452F5D29042
:100A13001D527470F0A374D9F0A3E4F0A3F0901DF9
:100A230059E0540CF0441AF0901D58E0C2E7F090DE
:100A33001D56E054E0F0A3E4F0901D56F0901D59CC
:100A4300E0C2E2F0901D587413F0901D6EE0541F45
:100A5300F0901D717452F0901D707420F0901D621F
:100A63007470F0A374F9F07401A3F0A37400F0A3FD
:100A7300E054E0F0A3E4F0901D66F0901D69741A51
:100A8300F0901D687410F0901D5C7470F0A374F9FD
:100A9300F0A3E054E0F0A3E4F0901D5EF0901D613C
:100AA300744AF0901D607410F0D2B8D083D08222C3
:100AB300C0E0C0D0E8C0E0E9C0E0EAC0E0EBC0E0DD
:100AC300ECC0E0EDC0E0C082C083C0F0C2C0E5D19D
:100AD300A2E05056E5136015751300740524429087
:100AE3001D55F07401901D54F074018012751301AB
:100AF30074892442901D55F07401901D54F0E475DF
:100B0300F084A4F8A9F0744228F582740139F583BE
:100B1300AC82AD83A3A3A3A3E02405FAE43400FBD2
:100B2300790012079675D1FE8048E5D1A2E15033D2
:100B3300E51FFA781BC3E69AF608E69400F6181840
:100B430018E62AF608E63400F674F465197004749E
:100B53001A651A7006751900751A00439A1075D133
:100B6300FD800FE5D1A2E250091202AD439A107540
:100B7300D1FBD0F0D083D0828003D0E0FED0E0FD63
:100B8300D0E0FCD0E0FBD0E0FAD0E0F9D0E0F8D040
:100B9300D0D0E03243F10243F4F075F82075FC2025
:100BA300438C04758D10758A0000C2EB439A10754F
:100BB300F90022C0E0C0D0E8C0E0E9C0E0EAC0E04C
:100BC300EBC0E0ECC0E0EDC0E0EEC0E0EFC0E0C0A1
:100BD30082C083C0F0758A0000C2EB75F900A2944D
:100BE3005003020CB5C2FAA2A250FC75F9FFA2FA97
:100BF30050FCE5F9600C14602914602C14604E025B
:100C03000CB575F900A2FA50FCE5F9F8901D66E001
:100C130054E0F0E8A3F075D604539AEF75F9FF0298
:100C23000CB512042D020CB5E5156003020CB57565
:100C3300A90075B900539AFEC2A875E1EF75E1EDFD
:100C430075D681C2BA7594007514028065AC19AD6E
:100C53001A74F4C39CFA741A9DFBA81BA91CC3E85D
:100C63009AE99B5005E8FEE98003EAFEEBFFC3EE39
:100C73009441EF940040047E408014C3E89AE99BBA
:100C83005003E88006ECF874F4C398FEEE60217418
:100C93005E2C74023D901D5AF0EC245EA3F0901D6F
:100CA3005EE054E0F0EEA3F075D602539AEF8E1F88
:0E0CB3008EF9D0F0D083D082D0E0FF020B7D0E
:04000005000000B83F
:00000001FF
